{
  "_format": "hh-sol-artifact-1",
  "contractName": "Crowdfunding",
  "sourceName": "contracts/Crowdfunding.sol",
  "abi": [
    {
      "inputs": [],
      "name": "ReentrancyGuardReentrantCall",
      "type": "error"
    },
    {
      "anonymous": false,
      "inputs": [
        {
          "indexed": true,
          "internalType": "uint256",
          "name": "id",
          "type": "uint256"
        },
        {
          "indexed": false,
          "internalType": "address",
          "name": "creator",
          "type": "address"
        },
        {
          "indexed": false,
          "internalType": "string",
          "name": "title",
          "type": "string"
        },
        {
          "indexed": false,
          "internalType": "uint256",
          "name": "goal",
          "type": "uint256"
        },
        {
          "indexed": false,
          "internalType": "uint256",
          "name": "deadline",
          "type": "uint256"
        }
      ],
      "name": "CampaignCreated",
      "type": "event"
    },
    {
      "anonymous": false,
      "inputs": [
        {
          "indexed": true,
          "internalType": "uint256",
          "name": "id",
          "type": "uint256"
        },
        {
          "indexed": false,
          "internalType": "address",
          "name": "donor",
          "type": "address"
        },
        {
          "indexed": false,
          "internalType": "uint256",
          "name": "amount",
          "type": "uint256"
        }
      ],
      "name": "DonationReceived",
      "type": "event"
    },
    {
      "anonymous": false,
      "inputs": [
        {
          "indexed": true,
          "internalType": "uint256",
          "name": "campaignId",
          "type": "uint256"
        },
        {
          "indexed": true,
          "internalType": "uint256",
          "name": "milestoneId",
          "type": "uint256"
        },
        {
          "indexed": false,
          "internalType": "uint256",
          "name": "amount",
          "type": "uint256"
        }
      ],
      "name": "FundsReleased",
      "type": "event"
    },
    {
      "anonymous": false,
      "inputs": [
        {
          "indexed": true,
          "internalType": "uint256",
          "name": "campaignId",
          "type": "uint256"
        },
        {
          "indexed": true,
          "internalType": "uint256",
          "name": "milestoneId",
          "type": "uint256"
        },
        {
          "indexed": false,
          "internalType": "address",
          "name": "donor",
          "type": "address"
        }
      ],
      "name": "MilestoneApproved",
      "type": "event"
    },
    {
      "anonymous": false,
      "inputs": [
        {
          "indexed": true,
          "internalType": "uint256",
          "name": "campaignId",
          "type": "uint256"
        },
        {
          "indexed": true,
          "internalType": "uint256",
          "name": "milestoneId",
          "type": "uint256"
        },
        {
          "indexed": false,
          "internalType": "string",
          "name": "description",
          "type": "string"
        },
        {
          "indexed": false,
          "internalType": "uint256",
          "name": "amount",
          "type": "uint256"
        }
      ],
      "name": "MilestoneCreated",
      "type": "event"
    },
    {
      "anonymous": false,
      "inputs": [
        {
          "indexed": true,
          "internalType": "uint256",
          "name": "campaignId",
          "type": "uint256"
        },
        {
          "indexed": true,
          "internalType": "address",
          "name": "donor",
          "type": "address"
        },
        {
          "indexed": false,
          "internalType": "uint256",
          "name": "amount",
          "type": "uint256"
        }
      ],
      "name": "RefundIssued",
      "type": "event"
    },
    {
      "inputs": [
        {
          "internalType": "uint256",
          "name": "_campaignId",
          "type": "uint256"
        },
        {
          "internalType": "uint256",
          "name": "_milestoneId",
          "type": "uint256"
        }
      ],
      "name": "approveMilestone",
      "outputs": [],
      "stateMutability": "nonpayable",
      "type": "function"
    },
    {
      "inputs": [],
      "name": "campaignCount",
      "outputs": [
        {
          "internalType": "uint256",
          "name": "",
          "type": "uint256"
        }
      ],
      "stateMutability": "view",
      "type": "function"
    },
    {
      "inputs": [
        {
          "internalType": "uint256",
          "name": "",
          "type": "uint256"
        }
      ],
      "name": "campaigns",
      "outputs": [
        {
          "internalType": "address payable",
          "name": "creator",
          "type": "address"
        },
        {
          "internalType": "string",
          "name": "title",
          "type": "string"
        },
        {
          "internalType": "string",
          "name": "description",
          "type": "string"
        },
        {
          "internalType": "string",
          "name": "imageURI",
          "type": "string"
        },
        {
          "internalType": "uint256",
          "name": "goal",
          "type": "uint256"
        },
        {
          "internalType": "uint256",
          "name": "deadline",
          "type": "uint256"
        },
        {
          "internalType": "uint256",
          "name": "amountRaised",
          "type": "uint256"
        },
        {
          "internalType": "bool",
          "name": "withdrawn",
          "type": "bool"
        },
        {
          "internalType": "uint256",
          "name": "totalMilestones",
          "type": "uint256"
        }
      ],
      "stateMutability": "view",
      "type": "function"
    },
    {
      "inputs": [
        {
          "internalType": "uint256",
          "name": "",
          "type": "uint256"
        },
        {
          "internalType": "address",
          "name": "",
          "type": "address"
        }
      ],
      "name": "contributions",
      "outputs": [
        {
          "internalType": "uint256",
          "name": "",
          "type": "uint256"
        }
      ],
      "stateMutability": "view",
      "type": "function"
    },
    {
      "inputs": [
        {
          "internalType": "string",
          "name": "_title",
          "type": "string"
        },
        {
          "internalType": "string",
          "name": "_description",
          "type": "string"
        },
        {
          "internalType": "string",
          "name": "_imageURI",
          "type": "string"
        },
        {
          "internalType": "uint256",
          "name": "_goal",
          "type": "uint256"
        },
        {
          "internalType": "uint256",
          "name": "_durationInDays",
          "type": "uint256"
        }
      ],
      "name": "createCampaign",
      "outputs": [],
      "stateMutability": "nonpayable",
      "type": "function"
    },
    {
      "inputs": [
        {
          "internalType": "uint256",
          "name": "_campaignId",
          "type": "uint256"
        },
        {
          "internalType": "string",
          "name": "_description",
          "type": "string"
        },
        {
          "internalType": "uint256",
          "name": "_amount",
          "type": "uint256"
        }
      ],
      "name": "createMilestone",
      "outputs": [],
      "stateMutability": "nonpayable",
      "type": "function"
    },
    {
      "inputs": [
        {
          "internalType": "uint256",
          "name": "_campaignId",
          "type": "uint256"
        }
      ],
      "name": "donate",
      "outputs": [],
      "stateMutability": "payable",
      "type": "function"
    },
    {
      "inputs": [
        {
          "internalType": "uint256",
          "name": "",
          "type": "uint256"
        },
        {
          "internalType": "uint256",
          "name": "",
          "type": "uint256"
        }
      ],
      "name": "donors",
      "outputs": [
        {
          "internalType": "address",
          "name": "",
          "type": "address"
        }
      ],
      "stateMutability": "view",
      "type": "function"
    },
    {
      "inputs": [],
      "name": "getCampaigns",
      "outputs": [
        {
          "components": [
            {
              "internalType": "address payable",
              "name": "creator",
              "type": "address"
            },
            {
              "internalType": "string",
              "name": "title",
              "type": "string"
            },
            {
              "internalType": "string",
              "name": "description",
              "type": "string"
            },
            {
              "internalType": "string",
              "name": "imageURI",
              "type": "string"
            },
            {
              "internalType": "uint256",
              "name": "goal",
              "type": "uint256"
            },
            {
              "internalType": "uint256",
              "name": "deadline",
              "type": "uint256"
            },
            {
              "internalType": "uint256",
              "name": "amountRaised",
              "type": "uint256"
            },
            {
              "internalType": "bool",
              "name": "withdrawn",
              "type": "bool"
            },
            {
              "internalType": "uint256",
              "name": "totalMilestones",
              "type": "uint256"
            }
          ],
          "internalType": "struct Crowdfunding.Campaign[]",
          "name": "",
          "type": "tuple[]"
        }
      ],
      "stateMutability": "view",
      "type": "function"
    },
    {
      "inputs": [
        {
          "internalType": "uint256",
          "name": "_campaignId",
          "type": "uint256"
        }
      ],
      "name": "getDonors",
      "outputs": [
        {
          "internalType": "address[]",
          "name": "",
          "type": "address[]"
        }
      ],
      "stateMutability": "view",
      "type": "function"
    },
    {
      "inputs": [
        {
          "internalType": "uint256",
          "name": "",
          "type": "uint256"
        },
        {
          "internalType": "uint256",
          "name": "",
          "type": "uint256"
        },
        {
          "internalType": "address",
          "name": "",
          "type": "address"
        }
      ],
      "name": "milestoneApprovals",
      "outputs": [
        {
          "internalType": "bool",
          "name": "",
          "type": "bool"
        }
      ],
      "stateMutability": "view",
      "type": "function"
    },
    {
      "inputs": [
        {
          "internalType": "uint256",
          "name": "",
          "type": "uint256"
        },
        {
          "internalType": "uint256",
          "name": "",
          "type": "uint256"
        }
      ],
      "name": "milestones",
      "outputs": [
        {
          "internalType": "string",
          "name": "description",
          "type": "string"
        },
        {
          "internalType": "uint256",
          "name": "amount",
          "type": "uint256"
        },
        {
          "internalType": "bool",
          "name": "approved",
          "type": "bool"
        },
        {
          "internalType": "uint256",
          "name": "approvalCount",
          "type": "uint256"
        },
        {
          "internalType": "bool",
          "name": "fundsReleased",
          "type": "bool"
        }
      ],
      "stateMutability": "view",
      "type": "function"
    },
    {
      "inputs": [
        {
          "internalType": "uint256",
          "name": "_campaignId",
          "type": "uint256"
        }
      ],
      "name": "refund",
      "outputs": [],
      "stateMutability": "nonpayable",
      "type": "function"
    },
    {
      "inputs": [
        {
          "internalType": "uint256",
          "name": "_campaignId",
          "type": "uint256"
        },
        {
          "internalType": "uint256",
          "name": "_milestoneId",
          "type": "uint256"
        }
      ],
      "name": "releaseMilestoneFunds",
      "outputs": [],
      "stateMutability": "nonpayable",
      "type": "function"
    },
    {
      "inputs": [
        {
          "internalType": "uint256",
          "name": "_campaignId",
          "type": "uint256"
        }
      ],
      "name": "withdraw",
      "outputs": [],
      "stateMutability": "nonpayable",
      "type": "function"
    }
  ],
  "bytecode": "0x60806040523480156200001157600080fd5b50600162000034620000286200004160201b60201c565b6200006c60201b60201c565b6000018190555062000076565b60007f9b779b17422d0df92223018b32b4d1fa46e071723d6817e2486d003becc55f0060001b905090565b6000819050919050565b61358480620000866000396000f3fe6080604052600436106100e85760003560e01c80633d891f591161008a578063980f2e6611610059578063980f2e6614610336578063a6b036331461035f578063da13b0d31461038a578063f14faf6f146103b3576100e8565b80633d891f59146102685780633de1bb15146102a55780637274e30d146102ce57806383bd62dd146102f9576100e8565b8063278ecde1116100c6578063278ecde11461019c57806329516511146101c55780632e1a7d4d1461020257806333df72001461022b576100e8565b8063141961bc146100ed5780631c376c631461013257806320913da514610173575b600080fd5b3480156100f957600080fd5b50610114600480360381019061010f9190611ea3565b6103cf565b60405161012999989796959493929190611fcb565b60405180910390f35b34801561013e57600080fd5b506101596004803603810190610154919061206d565b6105e2565b60405161016a9594939291906120ad565b60405180910390f35b34801561017f57600080fd5b5061019a6004803603810190610195919061206d565b6106c7565b005b3480156101a857600080fd5b506101c360048036038101906101be9190611ea3565b6109a1565b005b3480156101d157600080fd5b506101ec60048036038101906101e79190611ea3565b610c47565b6040516101f991906121d7565b60405180910390f35b34801561020e57600080fd5b5061022960048036038101906102249190611ea3565b610ce8565b005b34801561023757600080fd5b50610252600480360381019061024d9190612225565b610fc1565b60405161025f9190612278565b60405180910390f35b34801561027457600080fd5b5061028f600480360381019061028a9190612293565b610ffd565b60405161029c91906122d3565b60405180910390f35b3480156102b157600080fd5b506102cc60048036038101906102c7919061206d565b611022565b005b3480156102da57600080fd5b506102e36113b3565b6040516102f091906122d3565b60405180910390f35b34801561030557600080fd5b50610320600480360381019061031b919061206d565b6113b9565b60405161032d91906122fd565b60405180910390f35b34801561034257600080fd5b5061035d6004803603810190610358919061244d565b611407565b005b34801561036b57600080fd5b5061037461160c565b6040516103819190612728565b60405180910390f35b34801561039657600080fd5b506103b160048036038101906103ac919061274a565b61191b565b005b6103cd60048036038101906103c89190611ea3565b611ae7565b005b60006020528060005260406000206000915090508060000160009054906101000a900473ffffffffffffffffffffffffffffffffffffffff1690806001018054610418906127e8565b80601f0160208091040260200160405190810160405280929190818152602001828054610444906127e8565b80156104915780601f1061046657610100808354040283529160200191610491565b820191906000526020600020905b81548152906001019060200180831161047457829003601f168201915b5050505050908060020180546104a6906127e8565b80601f01602080910402602001604051908101604052809291908181526020018280546104d2906127e8565b801561051f5780601f106104f45761010080835404028352916020019161051f565b820191906000526020600020905b81548152906001019060200180831161050257829003601f168201915b505050505090806003018054610534906127e8565b80601f0160208091040260200160405190810160405280929190818152602001828054610560906127e8565b80156105ad5780601f10610582576101008083540402835291602001916105ad565b820191906000526020600020905b81548152906001019060200180831161059057829003601f168201915b5050505050908060040154908060050154908060060154908060070160009054906101000a900460ff16908060080154905089565b600160205281600052604060002060205280600052604060002060009150915050806000018054610612906127e8565b80601f016020809104026020016040519081016040528092919081815260200182805461063e906127e8565b801561068b5780601f106106605761010080835404028352916020019161068b565b820191906000526020600020905b81548152906001019060200180831161066e57829003601f168201915b5050505050908060010154908060020160009054906101000a900460ff16908060030154908060040160009054906101000a900460ff16905085565b60006002600084815260200190815260200160002060003373ffffffffffffffffffffffffffffffffffffffff1673ffffffffffffffffffffffffffffffffffffffff168152602001908152602001600020541161075a576040517f08c379a000000000000000000000000000000000000000000000000000000000815260040161075190612865565b60405180910390fd5b60046000838152602001908152602001600020600082815260200190815260200160002060003373ffffffffffffffffffffffffffffffffffffffff1673ffffffffffffffffffffffffffffffffffffffff16815260200190815260200160002060009054906101000a900460ff1615610809576040517f08c379a0000000000000000000000000000000000000000000000000000000008152600401610800906128d1565b60405180910390fd5b600060016000848152602001908152602001600020600083815260200190815260200160002090508060040160009054906101000a900460ff1615610883576040517f08c379a000000000000000000000000000000000000000000000000000000000815260040161087a9061293d565b60405180910390fd5b600160046000858152602001908152602001600020600084815260200190815260200160002060003373ffffffffffffffffffffffffffffffffffffffff1673ffffffffffffffffffffffffffffffffffffffff16815260200190815260200160002060006101000a81548160ff0219169083151502179055508060030160008154809291906109129061298c565b91905055506002600360008581526020019081526020016000208054905061093a9190612a03565b8160030154111561099c5760018160020160006101000a81548160ff02191690831515021790555081837f9ffbb52f2a1362273cd74689a516ca4f52c4282dc13e2e68b7e0646a9a7af7a33360405161099391906122fd565b60405180910390a35b505050565b6109a9611d23565b600080600083815260200190815260200160002090508060050154421015610a06576040517f08c379a00000000000000000000000000000000000000000000000000000000081526004016109fd90612a80565b60405180910390fd5b8060040154816006015410610a50576040517f08c379a0000000000000000000000000000000000000000000000000000000008152600401610a4790612aec565b60405180910390fd5b60006002600084815260200190815260200160002060003373ffffffffffffffffffffffffffffffffffffffff1673ffffffffffffffffffffffffffffffffffffffff16815260200190815260200160002054905060008111610ae8576040517f08c379a0000000000000000000000000000000000000000000000000000000008152600401610adf90612b58565b60405180910390fd5b60006002600085815260200190815260200160002060003373ffffffffffffffffffffffffffffffffffffffff1673ffffffffffffffffffffffffffffffffffffffff1681526020019081526020016000208190555060003373ffffffffffffffffffffffffffffffffffffffff1682604051610b6490612ba9565b60006040518083038185875af1925050503d8060008114610ba1576040519150601f19603f3d011682016040523d82523d6000602084013e610ba6565b606091505b5050905080610bea576040517f08c379a0000000000000000000000000000000000000000000000000000000008152600401610be190612c0a565b60405180910390fd5b3373ffffffffffffffffffffffffffffffffffffffff16847f7a482fdeb6bc9a1376f597068a214a7a39472bb2eff1b8cad21ba04f49ddca1b84604051610c3191906122d3565b60405180910390a3505050610c44611d46565b50565b606060036000838152602001908152602001600020805480602002602001604051908101604052809291908181526020018280548015610cdc57602002820191906000526020600020905b8160009054906101000a900473ffffffffffffffffffffffffffffffffffffffff1673ffffffffffffffffffffffffffffffffffffffff1681526020019060010190808311610c92575b50505050509050919050565b610cf0611d23565b600080600083815260200190815260200160002090508060000160009054906101000a900473ffffffffffffffffffffffffffffffffffffffff1673ffffffffffffffffffffffffffffffffffffffff163373ffffffffffffffffffffffffffffffffffffffff1614610d98576040517f08c379a0000000000000000000000000000000000000000000000000000000008152600401610d8f90612c76565b60405180910390fd5b8060050154421015610ddf576040517f08c379a0000000000000000000000000000000000000000000000000000000008152600401610dd690612a80565b60405180910390fd5b806004015481600601541015610e2a576040517f08c379a0000000000000000000000000000000000000000000000000000000008152600401610e2190612ce2565b60405180910390fd5b8060070160009054906101000a900460ff1615610e7c576040517f08c379a0000000000000000000000000000000000000000000000000000000008152600401610e7390612d4e565b60405180910390fd5b6000816008015414610ec3576040517f08c379a0000000000000000000000000000000000000000000000000000000008152600401610eba90612dba565b60405180910390fd5b60018160070160006101000a81548160ff02191690831515021790555060008160000160009054906101000a900473ffffffffffffffffffffffffffffffffffffffff1673ffffffffffffffffffffffffffffffffffffffff168260060154604051610f2e90612ba9565b60006040518083038185875af1925050503d8060008114610f6b576040519150601f19603f3d011682016040523d82523d6000602084013e610f70565b606091505b5050905080610fb4576040517f08c379a0000000000000000000000000000000000000000000000000000000008152600401610fab90612e26565b60405180910390fd5b5050610fbe611d46565b50565b6004602052826000526040600020602052816000526040600020602052806000526040600020600092509250509054906101000a900460ff1681565b6002602052816000526040600020602052806000526040600020600091509150505481565b61102a611d23565b600080600084815260200190815260200160002090508060000160009054906101000a900473ffffffffffffffffffffffffffffffffffffffff1673ffffffffffffffffffffffffffffffffffffffff163373ffffffffffffffffffffffffffffffffffffffff16146110d2576040517f08c379a00000000000000000000000000000000000000000000000000000000081526004016110c990612e92565b60405180910390fd5b8060050154421015611119576040517f08c379a000000000000000000000000000000000000000000000000000000000815260040161111090612a80565b60405180910390fd5b806004015481600601541015611164576040517f08c379a000000000000000000000000000000000000000000000000000000000815260040161115b90612ce2565b60405180910390fd5b600060016000858152602001908152602001600020600084815260200190815260200160002090508060020160009054906101000a900460ff166111dd576040517f08c379a00000000000000000000000000000000000000000000000000000000081526004016111d490612f24565b60405180910390fd5b8060040160009054906101000a900460ff161561122f576040517f08c379a00000000000000000000000000000000000000000000000000000000081526004016112269061293d565b60405180910390fd5b8060010154471015611276576040517f08c379a000000000000000000000000000000000000000000000000000000000815260040161126d90612f90565b60405180910390fd5b60018160040160006101000a81548160ff02191690831515021790555060008260000160009054906101000a900473ffffffffffffffffffffffffffffffffffffffff1673ffffffffffffffffffffffffffffffffffffffff1682600101546040516112e190612ba9565b60006040518083038185875af1925050503d806000811461131e576040519150601f19603f3d011682016040523d82523d6000602084013e611323565b606091505b5050905080611367576040517f08c379a000000000000000000000000000000000000000000000000000000000815260040161135e90612e26565b60405180910390fd5b83857f24d2f6e8ac6c13d1e7610752ab0b7ce03d5043806a65d3d631ae859ad81d159b846001015460405161139c91906122d3565b60405180910390a35050506113af611d46565b5050565b60055481565b600360205281600052604060002081815481106113d557600080fd5b906000526020600020016000915091509054906101000a900473ffffffffffffffffffffffffffffffffffffffff1681565b6000821161144a576040517f08c379a000000000000000000000000000000000000000000000000000000000815260040161144190612ffc565b60405180910390fd5b6000620151808261145b919061301c565b42611466919061305e565b90506040518061012001604052803373ffffffffffffffffffffffffffffffffffffffff168152602001878152602001868152602001858152602001848152602001828152602001600081526020016000151581526020016000815250600080600554815260200190815260200160002060008201518160000160006101000a81548173ffffffffffffffffffffffffffffffffffffffff021916908373ffffffffffffffffffffffffffffffffffffffff1602179055506020820151816001019081611533919061323e565b506040820151816002019081611549919061323e565b50606082015181600301908161155f919061323e565b506080820151816004015560a0820151816005015560c0820151816006015560e08201518160070160006101000a81548160ff02191690831515021790555061010082015181600801559050506005547fdc26653af5b99b2da33e2ad69ee6600d9aeccc82b034501db4338309615ca238338886856040516115e49493929190613310565b60405180910390a2600560008154809291906115ff9061298c565b9190505550505050505050565b6060600060055467ffffffffffffffff81111561162c5761162b612322565b5b60405190808252806020026020018201604052801561166557816020015b611652611df5565b81526020019060019003908161164a5790505b50905060005b60055481101561191357600080828152602001908152602001600020604051806101200160405290816000820160009054906101000a900473ffffffffffffffffffffffffffffffffffffffff1673ffffffffffffffffffffffffffffffffffffffff1673ffffffffffffffffffffffffffffffffffffffff1681526020016001820180546116f9906127e8565b80601f0160208091040260200160405190810160405280929190818152602001828054611725906127e8565b80156117725780601f1061174757610100808354040283529160200191611772565b820191906000526020600020905b81548152906001019060200180831161175557829003601f168201915b5050505050815260200160028201805461178b906127e8565b80601f01602080910402602001604051908101604052809291908181526020018280546117b7906127e8565b80156118045780601f106117d957610100808354040283529160200191611804565b820191906000526020600020905b8154815290600101906020018083116117e757829003601f168201915b5050505050815260200160038201805461181d906127e8565b80601f0160208091040260200160405190810160405280929190818152602001828054611849906127e8565b80156118965780601f1061186b57610100808354040283529160200191611896565b820191906000526020600020905b81548152906001019060200180831161187957829003601f168201915b505050505081526020016004820154815260200160058201548152602001600682015481526020016007820160009054906101000a900460ff161515151581526020016008820154815250508282815181106118f5576118f461335c565b5b6020026020010181905250808061190b9061298c565b91505061166b565b508091505090565b600080600085815260200190815260200160002090508060000160009054906101000a900473ffffffffffffffffffffffffffffffffffffffff1673ffffffffffffffffffffffffffffffffffffffff163373ffffffffffffffffffffffffffffffffffffffff16146119c3576040517f08c379a00000000000000000000000000000000000000000000000000000000081526004016119ba906133d7565b60405180910390fd5b6000816008015490506040518060a0016040528085815260200184815260200160001515815260200160008152602001600015158152506001600087815260200190815260200160002060008381526020019081526020016000206000820151816000019081611a33919061323e565b506020820151816001015560408201518160020160006101000a81548160ff0219169083151502179055506060820151816003015560808201518160040160006101000a81548160ff021916908315150217905550905050816008016000815480929190611aa09061298c565b919050555080857f3d198c5d9c28f50bf234c9c1a9a84f7ed3a20d152833a06c844a8e897261abd28686604051611ad89291906133f7565b60405180910390a35050505050565b611aef611d23565b6000806000838152602001908152602001600020905080600501544210611b4b576040517f08c379a0000000000000000000000000000000000000000000000000000000008152600401611b4290613473565b60405180910390fd5b60003411611b8e576040517f08c379a0000000000000000000000000000000000000000000000000000000008152600401611b8590613505565b60405180910390fd5b60006002600084815260200190815260200160002060003373ffffffffffffffffffffffffffffffffffffffff1673ffffffffffffffffffffffffffffffffffffffff1681526020019081526020016000205403611c5b5760036000838152602001908152602001600020339080600181540180825580915050600190039060005260206000200160009091909190916101000a81548173ffffffffffffffffffffffffffffffffffffffff021916908373ffffffffffffffffffffffffffffffffffffffff1602179055505b346002600084815260200190815260200160002060003373ffffffffffffffffffffffffffffffffffffffff1673ffffffffffffffffffffffffffffffffffffffff1681526020019081526020016000206000828254611cbb919061305e565b9250508190555034816006016000828254611cd6919061305e565b92505081905550817f0b5b4c52969ff7329ecf7ee536409fda87812b15a8622bc6e8cdeab3aee14a263334604051611d0f929190613525565b60405180910390a250611d20611d46565b50565b611d2b611d61565b6002611d3d611d38611da2565b611dcd565b60000181905550565b6001611d58611d53611da2565b611dcd565b60000181905550565b611d69611dd7565b15611da0576040517f3ee5aeb500000000000000000000000000000000000000000000000000000000815260040160405180910390fd5b565b60007f9b779b17422d0df92223018b32b4d1fa46e071723d6817e2486d003becc55f0060001b905090565b6000819050919050565b60006002611deb611de6611da2565b611dcd565b6000015414905090565b604051806101200160405280600073ffffffffffffffffffffffffffffffffffffffff168152602001606081526020016060815260200160608152602001600081526020016000815260200160008152602001600015158152602001600081525090565b6000604051905090565b600080fd5b600080fd5b6000819050919050565b611e8081611e6d565b8114611e8b57600080fd5b50565b600081359050611e9d81611e77565b92915050565b600060208284031215611eb957611eb8611e63565b5b6000611ec784828501611e8e565b91505092915050565b600073ffffffffffffffffffffffffffffffffffffffff82169050919050565b6000611efb82611ed0565b9050919050565b611f0b81611ef0565b82525050565b600081519050919050565b600082825260208201905092915050565b60005b83811015611f4b578082015181840152602081019050611f30565b60008484015250505050565b6000601f19601f8301169050919050565b6000611f7382611f11565b611f7d8185611f1c565b9350611f8d818560208601611f2d565b611f9681611f57565b840191505092915050565b611faa81611e6d565b82525050565b60008115159050919050565b611fc581611fb0565b82525050565b600061012082019050611fe1600083018c611f02565b8181036020830152611ff3818b611f68565b90508181036040830152612007818a611f68565b9050818103606083015261201b8189611f68565b905061202a6080830188611fa1565b61203760a0830187611fa1565b61204460c0830186611fa1565b61205160e0830185611fbc565b61205f610100830184611fa1565b9a9950505050505050505050565b6000806040838503121561208457612083611e63565b5b600061209285828601611e8e565b92505060206120a385828601611e8e565b9150509250929050565b600060a08201905081810360008301526120c78188611f68565b90506120d66020830187611fa1565b6120e36040830186611fbc565b6120f06060830185611fa1565b6120fd6080830184611fbc565b9695505050505050565b600081519050919050565b600082825260208201905092915050565b6000819050602082019050919050565b600061213e82611ed0565b9050919050565b61214e81612133565b82525050565b60006121608383612145565b60208301905092915050565b6000602082019050919050565b600061218482612107565b61218e8185612112565b935061219983612123565b8060005b838110156121ca5781516121b18882612154565b97506121bc8361216c565b92505060018101905061219d565b5085935050505092915050565b600060208201905081810360008301526121f18184612179565b905092915050565b61220281612133565b811461220d57600080fd5b50565b60008135905061221f816121f9565b92915050565b60008060006060848603121561223e5761223d611e63565b5b600061224c86828701611e8e565b935050602061225d86828701611e8e565b925050604061226e86828701612210565b9150509250925092565b600060208201905061228d6000830184611fbc565b92915050565b600080604083850312156122aa576122a9611e63565b5b60006122b885828601611e8e565b92505060206122c985828601612210565b9150509250929050565b60006020820190506122e86000830184611fa1565b92915050565b6122f781612133565b82525050565b600060208201905061231260008301846122ee565b92915050565b600080fd5b600080fd5b7f4e487b7100000000000000000000000000000000000000000000000000000000600052604160045260246000fd5b61235a82611f57565b810181811067ffffffffffffffff8211171561237957612378612322565b5b80604052505050565b600061238c611e59565b90506123988282612351565b919050565b600067ffffffffffffffff8211156123b8576123b7612322565b5b6123c182611f57565b9050602081019050919050565b82818337600083830152505050565b60006123f06123eb8461239d565b612382565b90508281526020810184848401111561240c5761240b61231d565b5b6124178482856123ce565b509392505050565b600082601f83011261243457612433612318565b5b81356124448482602086016123dd565b91505092915050565b600080600080600060a0868803121561246957612468611e63565b5b600086013567ffffffffffffffff81111561248757612486611e68565b5b6124938882890161241f565b955050602086013567ffffffffffffffff8111156124b4576124b3611e68565b5b6124c08882890161241f565b945050604086013567ffffffffffffffff8111156124e1576124e0611e68565b5b6124ed8882890161241f565b93505060606124fe88828901611e8e565b925050608061250f88828901611e8e565b9150509295509295909350565b600081519050919050565b600082825260208201905092915050565b6000819050602082019050919050565b61255181611ef0565b82525050565b600082825260208201905092915050565b600061257382611f11565b61257d8185612557565b935061258d818560208601611f2d565b61259681611f57565b840191505092915050565b6125aa81611e6d565b82525050565b6125b981611fb0565b82525050565b6000610120830160008301516125d86000860182612548565b50602083015184820360208601526125f08282612568565b9150506040830151848203604086015261260a8282612568565b915050606083015184820360608601526126248282612568565b915050608083015161263960808601826125a1565b5060a083015161264c60a08601826125a1565b5060c083015161265f60c08601826125a1565b5060e083015161267260e08601826125b0565b506101008301516126876101008601826125a1565b508091505092915050565b600061269e83836125bf565b905092915050565b6000602082019050919050565b60006126be8261251c565b6126c88185612527565b9350836020820285016126da85612538565b8060005b8581101561271657848403895281516126f78582612692565b9450612702836126a6565b925060208a019950506001810190506126de565b50829750879550505050505092915050565b6000602082019050818103600083015261274281846126b3565b905092915050565b60008060006060848603121561276357612762611e63565b5b600061277186828701611e8e565b935050602084013567ffffffffffffffff81111561279257612791611e68565b5b61279e8682870161241f565b92505060406127af86828701611e8e565b9150509250925092565b7f4e487b7100000000000000000000000000000000000000000000000000000000600052602260045260246000fd5b6000600282049050600182168061280057607f821691505b602082108103612813576128126127b9565b5b50919050565b7f4f6e6c7920646f6e6f72732063616e20617070726f7665000000000000000000600082015250565b600061284f601783611f1c565b915061285a82612819565b602082019050919050565b6000602082019050818103600083015261287e81612842565b9050919050565b7f416c726561647920617070726f76656400000000000000000000000000000000600082015250565b60006128bb601083611f1c565b91506128c682612885565b602082019050919050565b600060208201905081810360008301526128ea816128ae565b9050919050565b7f46756e647320616c72656164792072656c656173656400000000000000000000600082015250565b6000612927601683611f1c565b9150612932826128f1565b602082019050919050565b600060208201905081810360008301526129568161291a565b9050919050565b7f4e487b7100000000000000000000000000000000000000000000000000000000600052601160045260246000fd5b600061299782611e6d565b91507fffffffffffffffffffffffffffffffffffffffffffffffffffffffffffffffff82036129c9576129c861295d565b5b600182019050919050565b7f4e487b7100000000000000000000000000000000000000000000000000000000600052601260045260246000fd5b6000612a0e82611e6d565b9150612a1983611e6d565b925082612a2957612a286129d4565b5b828204905092915050565b7f43616d706169676e207374696c6c2072756e6e696e6700000000000000000000600082015250565b6000612a6a601683611f1c565b9150612a7582612a34565b602082019050919050565b60006020820190508181036000830152612a9981612a5d565b9050919050565b7f46756e64696e6720676f616c20726561636865642c206e6f20726566756e6473600082015250565b6000612ad6602083611f1c565b9150612ae182612aa0565b602082019050919050565b60006020820190508181036000830152612b0581612ac9565b9050919050565b7f4e6f20636f6e747269627574696f6e7320666f756e6400000000000000000000600082015250565b6000612b42601683611f1c565b9150612b4d82612b0c565b602082019050919050565b60006020820190508181036000830152612b7181612b35565b9050919050565b600081905092915050565b50565b6000612b93600083612b78565b9150612b9e82612b83565b600082019050919050565b6000612bb482612b86565b9150819050919050565b7f4661696c656420746f2073656e6420726566756e640000000000000000000000600082015250565b6000612bf4601583611f1c565b9150612bff82612bbe565b602082019050919050565b60006020820190508181036000830152612c2381612be7565b9050919050565b7f4f6e6c792063726561746f722063616e20776974686472617700000000000000600082015250565b6000612c60601983611f1c565b9150612c6b82612c2a565b602082019050919050565b60006020820190508181036000830152612c8f81612c53565b9050919050565b7f46756e64696e6720676f616c206e6f7420726561636865640000000000000000600082015250565b6000612ccc601883611f1c565b9150612cd782612c96565b602082019050919050565b60006020820190508181036000830152612cfb81612cbf565b9050919050565b7f416c72656164792077697468647261776e000000000000000000000000000000600082015250565b6000612d38601183611f1c565b9150612d4382612d02565b602082019050919050565b60006020820190508181036000830152612d6781612d2b565b9050919050565b7f557365206d696c6573746f6e652072656c6561736520696e7374656164000000600082015250565b6000612da4601d83611f1c565b9150612daf82612d6e565b602082019050919050565b60006020820190508181036000830152612dd381612d97565b9050919050565b7f4661696c656420746f2073656e64204574686572000000000000000000000000600082015250565b6000612e10601483611f1c565b9150612e1b82612dda565b602082019050919050565b60006020820190508181036000830152612e3f81612e03565b9050919050565b7f4f6e6c792063726561746f722063616e2072656c656173652066756e64730000600082015250565b6000612e7c601e83611f1c565b9150612e8782612e46565b602082019050919050565b60006020820190508181036000830152612eab81612e6f565b9050919050565b7f4d696c6573746f6e65206e6f7420617070726f766564206279206d616a6f726960008201527f7479000000000000000000000000000000000000000000000000000000000000602082015250565b6000612f0e602283611f1c565b9150612f1982612eb2565b604082019050919050565b60006020820190508181036000830152612f3d81612f01565b9050919050565b7f496e73756666696369656e7420636f6e74726163742062616c616e6365000000600082015250565b6000612f7a601d83611f1c565b9150612f8582612f44565b602082019050919050565b60006020820190508181036000830152612fa981612f6d565b9050919050565b7f476f616c206d7573742062652067726561746572207468616e207a65726f0000600082015250565b6000612fe6601e83611f1c565b9150612ff182612fb0565b602082019050919050565b6000602082019050818103600083015261301581612fd9565b9050919050565b600061302782611e6d565b915061303283611e6d565b925082820261304081611e6d565b915082820484148315176130575761305661295d565b5b5092915050565b600061306982611e6d565b915061307483611e6d565b925082820190508082111561308c5761308b61295d565b5b92915050565b60008190508160005260206000209050919050565b60006020601f8301049050919050565b600082821b905092915050565b6000600883026130f47fffffffffffffffffffffffffffffffffffffffffffffffffffffffffffffffff826130b7565b6130fe86836130b7565b95508019841693508086168417925050509392505050565b6000819050919050565b600061313b61313661313184611e6d565b613116565b611e6d565b9050919050565b6000819050919050565b61315583613120565b61316961316182613142565b8484546130c4565b825550505050565b600090565b61317e613171565b61318981848461314c565b505050565b5b818110156131ad576131a2600082613176565b60018101905061318f565b5050565b601f8211156131f2576131c381613092565b6131cc846130a7565b810160208510156131db578190505b6131ef6131e7856130a7565b83018261318e565b50505b505050565b600082821c905092915050565b6000613215600019846008026131f7565b1980831691505092915050565b600061322e8383613204565b9150826002028217905092915050565b61324782611f11565b67ffffffffffffffff8111156132605761325f612322565b5b61326a82546127e8565b6132758282856131b1565b600060209050601f8311600181146132a85760008415613296578287015190505b6132a08582613222565b865550613308565b601f1984166132b686613092565b60005b828110156132de578489015182556001820191506020850194506020810190506132b9565b868310156132fb57848901516132f7601f891682613204565b8355505b6001600288020188555050505b505050505050565b600060808201905061332560008301876122ee565b81810360208301526133378186611f68565b90506133466040830185611fa1565b6133536060830184611fa1565b95945050505050565b7f4e487b7100000000000000000000000000000000000000000000000000000000600052603260045260246000fd5b7f4f6e6c792063726561746f722063616e20616464206d696c6573746f6e657300600082015250565b60006133c1601f83611f1c565b91506133cc8261338b565b602082019050919050565b600060208201905081810360008301526133f0816133b4565b9050919050565b600060408201905081810360008301526134118185611f68565b90506134206020830184611fa1565b9392505050565b7f43616d706169676e2068617320656e6465640000000000000000000000000000600082015250565b600061345d601283611f1c565b915061346882613427565b602082019050919050565b6000602082019050818103600083015261348c81613450565b9050919050565b7f446f6e6174696f6e206d7573742062652067726561746572207468616e207a6560008201527f726f000000000000000000000000000000000000000000000000000000000000602082015250565b60006134ef602283611f1c565b91506134fa82613493565b604082019050919050565b6000602082019050818103600083015261351e816134e2565b9050919050565b600060408201905061353a60008301856122ee565b6135476020830184611fa1565b939250505056fea2646970667358221220538b74825cb6d79b7870c8c54a4a281f52f0f8f3a74d40539eefa7ca9b38b4a864736f6c63430008140033",
  "linkReferences": {},
  "deployedLinkReferences": {}
}